:02000002D0002C
:1040000000400D0060620D00000006000D0005017B
:084010000401BD0400000000E2
:10401800EC5D0D0009480A49884208B505D0094AEF
:10402800824202D0121A01F06BFE0748074A0021AB
:10403800121A01F070FE014808BD00BFE8E2032033
:10404800D0610D0050E3032050E30320F0E7032084
:1040580070B501F099FC074C074BE41AA408002539
:104068001E46A54204D056F8253098470135F8E792
:1040780070BD00BFC8610D008C610D0000F018B85C
:1040880008B500F053F8BDE8084001F04BBC00F05B
:10409800F1BB00F0F7BB00F0F5BB0078B0FA80F098
:1040A800400970470123037070477047704700004C
:1040B80010B501F0F3FB4FF4165101F0E3FB1D219D
:1040C800154800F00FF928B901F0E8FB134901F091
:1040D800CAF9FEE701F0E2FB114901F0C4F9002139
:1040E8000D4800F03AF901F0D9FB0E4901F0A8F9A2
:1040F80001F0D4FB0446084800F04AF90221814047
:104108000A22204601F00AFA01F0C8FB0649BDE878
:10411800104001F0A8B900BF54E30320005E0D0071
:104128000E5E0D001D5E0D00265E0D0010B51F48C9
:104138008CB000F034F91E4908A801F068FA1D4B4C
:10414800089A1B788DF800301B493C2306A800F01C
:104158007FFD079C7CB16368013B63605BB92368A2
:1041680020469B689847A368013BA3601BB9236856
:104178002046DB68984740F6B83000F0A3FB0F4BA9
:1041880019680823ADF816300CAB012203F81B2D73
:1041980002910021019100920DF1160106A801F08B
:1041A80061FA08A801F0ECF90CB010BD54E3032043
:1041B800285E0D0074E30320495E0D0078E30320B8
:1041C80010B52021044601F040FC204610BD000037
:1041D80010B50A4B0A4C00221A600A4B01221A70C9
:1041E80000F0C2F94FF0FF31204600F075F8204684
:1041F800054A0649BDE8104001F022BC78E30320D7
:1042080054E3032074E3032050E30320B5400D007A
:1042180010B5044601F0D2FB036821469B68BDE84F
:104228001040184738B50C4605462822002120467C
:1042380001F071FD0B220849204601F0C0FD002362
:104248000122E372E260A96963620023216162616D
:10425800A361E361236238BD785E0D0070B5064640
:1042680014460D4601F0AAFB96F91C1000F0EAFE70
:104278002846FFF7CDFF2046FFF7CAFF01F09EFB57
:10428800BDE8704000F0E5BE38B504460D4601F0C3
:1042980095FB94F91C1000F0D5FE2846FFF7B8FFEF
:1042A80001F08CFB002100F0D0FE01F087FB012219
:1042B80094F91C1000F0BDFE01F080FB03681B6937
:1042C800984730B101F07AFB03685B699847C0B240
:1042D80038BDFF2038BD0000014A02608161704787
:1042E800645E0D0038B504460D4601F067FB00F02A
:1042F80091FE25770D212046FFF7C6FF1A282AD1FF
:1043080040222B212046FFF7A9FF2B212046FFF74B
:10431800BBFF4306F9D4204601220E21FFF79EFF7A
:10432800204602222B21FFF799FF204601222D214A
:10433800FFF794FF204601222E21FFF78FFF20462A
:1043480040221121FFF78AFF204605222A21FFF784
:1043580085FF012038BD002038BD70B50E462A21E2
:104368000446FFF791FF002205462A212046FFF761
:1043780075FF06F0030220460E21FFF76FFF45F098
:1043880001022046D2B22A21BDE87040FFF766BF7D
:1043980008B50E21FFF778FF00F0030008BD10B53F
:1043A800044601F00BFB94F91C1000F04BFE0120B1
:1043B800FFF72EFF01F002FB002100F046FE01F09E
:1043C800FDFA062294F91C1000F033FE01F0F6FA0B
:1043D80003685B6998470002E08001F0EFFA036820
:1043E8005B699847E388184340F38D00E08001F04B
:1043F800E5FA03685B6998470002208101F0DEFA5C
:1044080003685B6998472389184340F38D0020812E
:1044180001F0D4FA03685B6998470002608101F0F3
:10442800CDFA03685B6998476389184340F38D00A8
:1044380060812046FFF7ACFF022807D0012808D08A
:10444800002814BF01234FF4805304E04FF4806325
:1044580001E04FF4006307EE903AB4F9063007EE36
:10446800103AF8EEE77AB8EEC77AB4F90830C7EE32
:10447800276A07EE103AB8EEC77AC4ED036AC7EEAA
:10448800276AB4F90A3007EE103AB8EEC77AC4EDD5
:10449800046AC7EE276AC4ED056A10BD70B50C46FC
:1044A8002426054632460021204601F034FC2660C9
:1044B800AB696360012600232846A6602361FFF7E5
:1044C8006EFFD5ED037A9FED0A7A67EE877A30465C
:1044D800C4ED057AD5ED047A67EE877AC4ED067ADD
:1044E800D5ED057A67EE877AC4ED077A70BD00BF0F
:1044F8000AE81C4100F038B808B5024B1B689B68F5
:10450800019308BD4802030008B5024B1B681B69EC
:10451800019308BD4802030008B5024B1B685B699C
:10452800019308BD4802030008B5024B1B681B6BCA
:10453800019308BD4802030008B5024B1B685B6C79
:10454800019308BD4802030008B5024B1B685B686D
:10455800019308BD1802030008B5024B1B685B698C
:10456800019308BD1802030008B5024B1B681B68BD
:10457800019308BD2C02030008B5024B1B68DB68D9
:10458800019308BD2802030008B5024B1B685B694C
:10459800019308BD2802030008B5024B1B689B69FC
:1045A800019308BD2802030008B5024B1B68DB69AC
:1045B800019308BD2802030008B5024B1B681B6A5B
:1045C800019308BD2802030008B5024B1B685B6A0B
:1045D800019308BD2802030008B5024B1B689B6ABB
:1045E800019308BD2802030008B5024B1B68DB6A6B
:1045F800019308BD2802030008B5024B1B681B6B1A
:10460800019308BD2802030008B5024B1B681B6C08
:10461800019308BD2802030008B5024B1B685B69BB
:10462800019308BD6402030008B5024B1B689B6830
:10463800019308BD6802030008B5024B1B68DB68DC
:10464800019308BD6802030008B5024B1B68DB69CB
:10465800019308BD3002030008B5024B1B681B68B4
:10466800019308BD3C02030008B5024B1B68DB68D8
:10467800019308BD3C02030008B5024B1B681B6987
:10468800019308BD3C02030008B5024B1B685B6937
:10469800019308BD3C02030008B5024B1B689B69E7
:1046A800019308BD3C02030008B5024B1B68DB6997
:1046B800019308BD3C02030008B5024B1B689B6AC6
:1046C800019308BD3C02030008B5024B1B681B6838
:1046D800019308BD4C02030008B5024B1B685B68D8
:1046E800019308BD4C02030008B5024B1B681B6907
:1046F800019308BD4C02030008B5024B1B685B69B7
:10470800019308BD4C02030008B5024B1B689B6966
:10471800019308BD4C02030008B5024B1B68DB6916
:10472800019308BD4C02030008B5024B1B681B6AC5
:10473800019308BD4C02030008B5024B1B685B6877
:10474800019308BD2002030008B5024B1B685B6992
:10475800019308BD2002030008B5024B1B68DB6CFF
:10476800019308BD2002030008B5024B1B685B6D6E
:10477800019308BD2002030008B5034B1B68D3F85A
:104788008830019308BD00002002030008B5034BE0
:104798001B68D3F89430019308BD00002002030081
:1047A80008B5034B1B68D3F8A030019308BD00007F
:1047B8002002030008B5024B1B681B6A019308BD61
:1047C8004402030008B5024B1B68DB6B019308BD6C
:1047D8004402030008B5024B1B685B68019308BDDF
:1047E8004002030008B5024B1B689B68019308BD93
:1047F8004002030008B5024B1B68DB68019308BD43
:104808004002030008B5024B1B681B69019308BDF1
:104818004002030008B5024B1B685B69019308BDA1
:104828004002030008B5024B1B689B69019308BD51
:104838004002030008B5024B1B68DB69019308BD01
:104848004002030008B5024B1B681B6A019308BDB0
:104858004002030008B5024B1B681B6B019308BD9F
:104868004002030008B5024B1B685B6B019308BD4F
:104878004002030008B5024B1B681B68019308BD82
:104888001C02030008B5024B1B685B68019308BD56
:104898001C02030008B5024B1B689B68019308BD06
:1048A8001C02030008B5024B1B68DB6A019308BDB4
:1048B8001C02030008B5024B1B681B6B019308BD63
:1048C8001C0203000021FFF73FBF10B583680446B0
:1048D8000BB901F0BCF8C3689847A3681BB1032261
:1048E80021462046984720461021BDE8104001F097
:1048F800ACB8002211464068FFF784BF0022114679
:104908004068FFF79FBF002211464068FFF7AABF23
:1049180000224068FFF79EBF002281F00101406835
:10492800FFF788BF00231A4619464068FFF77ABF89
:1049380000231A4619464068FFF76CBF002211464B
:104948004068FFF74FBF002202214068FFF752BFBF
:1049580000231A464068FFF73DBF000038B50C4CED
:1049680028252A460021204601F0D5F94FF0FF33CB
:1049780063602580074C0423204663602C25064B82
:1049880040F8083B2A46002101F0C5F9258138BDC9
:10499800B0E303207CE30320885E0D00704700200D
:1049A800704710B51021044601F04FF8204610BD9D
:1049B80008B508B1FFF7F5FF08BD10B583680446D0
:1049C80013B1032201469847204610BD38B5C46884
:1049D800ECB12378022B02D1E068FFF753FF65683A
:1049E80035B12846FFF7E9FF1021284601F02DF8D8
:1049F800A56835B12846FFF7E0FF1021284601F0E9
:104A080024F820461421BDE8384001F01EB838BD0E
:104A180038B5046805467CB16368013B63605BB9DF
:104A2800236820469B689847A368013BA3601BB98D
:104A380023682046DB689847284638BD13B50446E6
:104A480091E8050000234B600B602060626001A8BC
:104A580001930093FFF7DCFF204602B010BD0B68FE
:104A6800036013B15A6801325A607047F7B50C46B3
:104A780002AD54F8043B45F8083D06460F4601A828
:104A88002146FFF7ECFF29463046FFF7D7FF01A87C
:104A9800FFF7BEFF2046FFF7BBFF3846082100F0AE
:104AA800D4FF304603B0F0BD13B50B46044603C827
:104AB8008DE8030093E8030084E803009DE8030001
:104AC80083E8030002B010BD826810B50AB900F08F
:104AD800BEFFC368BDE81040184708B5006800F17C
:104AE8001001FFF7F1FF08BD826810B50AB900F0A0
:104AF800AEFFC368BDE81040184708B5006800F16C
:104B08001001FFF7F1FF08BD38B5002383608B68FB
:104B180004460D462BB102229847EB68E360AB6868
:104B2800A360204638BD00002DE9F0414FF69C7384
:104B380086B00468B1F904208B8000230F688DF8D3
:104B480000300B604FF00200D4E84F1F994203D1A8
:104B5800C4E8450F002DF7D102D08DF800106BE0A6
:104B680014F10C051EBFE76022821F460123BFF324
:104B78005F8F0020637004F10803BFF35F8F53E871
:104B8800006F43E80002002AF9D1BFF35F8F002EBF
:104B980052D0FFF7E1FD20B129463046FFF794FFD8
:104BA80043E031466846FFF7AFFFE068B4F91050BC
:104BB80008B101F0E1F804901020ADF81450FFF7A7
:104BC80066FA054630B34FF00008C0F80880182090
:104BD800FFF75DFA0446C0B1C0F808800146684690
:104BE800FFF762FF029BA268A360039B0292E26840
:104BF800E360BDF81430A3824FF69C73ADF814300F
:104C0800049B03922361CDF810800E4BEB600E4B92
:104C18002C60AB600498FFF735FE6846FFF7CDFEC1
:104C2800002229460948FFF79FFD3046FFF7C5FED9
:104C38001021304600F009FF3846FFF723FE06B082
:104C4800BDE8F081E34A0D00414D0D00D3480D0049
:104C58002DE9F04F8BB007AD4FF0000B0646994693
:104C680014200C230F4690469DF850A0C5F804B0B8
:104C7800C5F808B00793FFF70AFA044638B180F878
:104C880000B080F801B0C0F804B0C0F808B0002344
:104C9800102003940493FFF7FAF928B10123436025
:104CA8008360234B0360C4600490224B0893082060
:104CB800FFF7EDF9044628B1039B40F8043B04A92B
:104CC800FFF7CDFE00955FFA8AF34A46414638461B
:104CD8000994FFF76FFDB8B9039B5B7803F0FF02F7
:104CE80093B94FF69C7305A903A80592ADF818303F
:104CF800FFF71AFF0598FFF7C5FD05A80999FFF703
:104D0800B5FE06A8FFF784FE039B059304A906A831
:104D1800FFF7A5FE05A93046FFF790FE06A8FFF7A6
:104D280077FE04A8FFF774FE30460BB0BDE8F08F9D
:104D3800BC5E0D00AD4E0D00022AF8B5044606D043
:104D4800032A17D0012A21D10B6803601EE018201E
:104D58000E68FFF79CF9054650B13146FFF7D4FEBF
:104D68003069B6F9147008B101F006F82861AF820D
:104D780025600BE004684CB12069FFF783FD2046ED
:104D8800FFF71BFE1821204600F05FFE0020F8BD4B
:104D980038B5002383608B6804460D462BB1022288
:104DA8009847EB68E360AB68A360204638BD022AE9
:104DB80070B5044606D0032A11D0012A18D10B6811
:104DC800036015E014200E68FFF761F9054620B16D
:104DD8003146FFF7DDFF337C2B74256008E004685B
:104DE80034B12046FFF7E9FD1421204600F02DFEDE
:104DF800002070BDF0B5002387B00C46BFF35F8F6D
:104E080050E8006F40E80032002AF9D1BFF35F8F05
:104E1800002E3FD01846FFF79FFC074620B12146D9
:104E28003046FFF761FE2EE0314601A8FFF7B0FFDC
:104E380023788DF814301020FFF729F90546D0B1F2
:104E480087601420FFF723F9044678B1876001468C
:104E580001A8FFF729FE039BA268A360049B0392A5
:104E6800E268E3609DF81430049223740A4BEB6007
:104E78000A4B2C60AB6001A8FFF79FFD0022294672
:104E88000748FFF771FC3046FFF797FD10213046C1
:104E980000F0DBFD07B0F0BD034B0D00B74D0D0072
:104EA800D3480D0030B585B004460D466846114616
:104EB800FFF7DCFD7CB124B228460DB100F05CFFA1
:104EC800029002A96846ADF80C40FFF72DFE029843
:104ED800FFF7D8FC1DE000988DF808404FF001025C
:104EE800D0E84F3FA34203D1C0E8412F0029F7D1B2
:104EF80002D08DF808300CE010F10C014FF00103DE
:104F080018BF0373BFF35F8F043000F8033CFFF74B
:104F180071FF01A8FFF77CFD05B030BD00221146E6
:104F28004068FFF78FBC002211464068FFF79ABC23
:104F380000224068FFF78EBC002281F00101406822
:104F4800FFF778BC00231A4619464068FFF76ABC89
:104F580000231A4619464068FFF75CBC0022114638
:104F68004068FFF74FBC002211464068FFF73ABC83
:104F7800002202214068FFF73DBC00231A46406822
:104F8800FFF728BC024B03225A60024A1A60704796
:104F9800D8E30320D85E0D007047F8B506461546DD
:104FA8000C468F18BC4206D0336814F8011B9B6866
:104FB80030469847F6E72846F8BD0022007CFFF700
:104FC800FBBA0021007CFFF7FFBA0021007CFFF745
:104FD80003BB0021007CFFF707BB0021007CFFF723
:104FE8000BBB10B51421044600F02FFD204610BD60
:104FF80010B504464FF47A730846A3600021044BA9
:10500800207461602360FFF7FFFA204610BD00BFDF
:105018000C5F0D0000231A461946007CFFF7ACBA56
:1050280013B50024007C0094FFF7AEFAC0B202B0BA
:1050380010BD0123D2B2C9B2FFF7F2BF0022007C33
:10504800FFF7AABAC9B2FFF7F9BF0022007CFFF741
:10505800ABBA0121FFF7F9BF704710B51821044614
:1050680000F0F3FC204610BDF0B5037D062B8DB093
:105078000E4600F104074FF0000402D000F10805C5
:1050880018E00CAD394605F8304D2F232A460A2082
:10509800FFF7C2FA284600F08AFE33680246DB684A
:1050A8002946304698470FE024B12E21304600F0BB
:1050B800CBF9044415F8011D0A22304600F00AFA1B
:1050C800BD420444F0D120460DB0F0BD10B5054BEB
:1050D8000446112240F8043B002100F01CFE204643
:1050E80010BD00BF345F0D000346074A10B543F8F2
:1050F800042B01F1100251F8044B43F8044B914280
:10510800F9D10A781A7010BD345F0D0010B59DF8FA
:10511800084044EA032343EA024242EA01610423C5
:105128004160037510BD37B50D788B784A78C9781A
:1051380000912946FFF7EAFF03B030BD014B024A50
:105148001A607047E0E30320F85F0D000022114663
:105158004068FFF777BB002211464068FFF782BB23
:1051680000224068FFF776BB002281F00101406809
:10517800FFF760BB00231A4619464068FFF752BB89
:1051880000231A4619464068FFF744BB002211461F
:105198004068FFF737BB002211464068FFF722BB83
:1051A800002202214068FFF725BB00231A46406809
:1051B800FFF710BB38B5054688B104684CB1A36841
:1051C8001BB103222146204698471021204600F0B3
:1051D8003CFC28461421BDE8384000F036BC38BDF8
:1051E80010B103685B681847704710B50368044638
:1051F800BBB15868FFF780F978B923685A7C12B9AF
:105208005868FFF781F923685868FFF785F920681F
:105218000023236028B1FFF7CDFF206808B1FFF70E
:10522800C9FF204610BD000038B50C4B036004468A
:10523800D0F8CC0108B1FEF72EFFD4F8C45135B12F
:105248002846FFF7D2FF0421284600F0FEFBA0689D
:1052580008B1FFF7C5FF204638BD00BF2C600D0020
:1052680038B50D4C0D4B23600025022304F5E4707E
:105278006360A560C4F8C451C4F8C851FFF75CF96D
:10528800074BC4F8CC5123602046064A0649BDE8BE
:10529800384000F0D5BB00BFE4E3032060600D0098
:1052A8002C600D0050E3032031520D0000231A46F4
:1052B8004068FFF78FBA002202214068FFF79ABAC8
:1052C800002211464068FFF78DBA00221146406857
:1052D800FFF798BA00231A4619464068FFF79ABAAA
:1052E80000231A4619464068FFF79CBA002281F04D
:1052F80001014068FFF79EBA00224068FFF7AABA8A
:10530800002211464068FFF7ADBA002211464068F6
:10531800FFF798BA2DE9F043002495B016460D46DC
:105328000746FFF7D3FE214620220CA8009400F080
:10533800F2FC40230C9321466B460CAA3046FFF73B
:105348007BF90446002844D1024601216868FFF72A
:1053580059FA0221804622466868FFF753FA009EF0
:1053680081462146002E34D0002932D17368022BA1
:1053780002D00A2B09D02AE0B8F1000F27D07169B2
:1053880038460431FFF7CFFE20E0B9F1000F1ED0F8
:105398007469112201A800F0BEFC06238DF81430B0
:1053A80001AD04F108031834186859682A4603C285
:1053B8000833A3421546F7D101A906A807ADFFF7A0
:1053C80093FE0FCD3C1D0FC42B6823700121F66995
:1053D800C8E70098FFF728F9384615B0BDE8F0830C
:1053E800024B034A1A6000225A607047B4E5032052
:1053F80060600D00F8B506460D468F180024BD42C2
:105408000CD0336815F8011B9B6830469847002874
:1054180001DB0444F3E7002C08BF04462046F8BD2E
:1054280070B505460C46084649B100F0C0FC2B682B
:10543800024621462846DB68BDE87040184770BD23
:1054480008B5FFF7EDFF08BD03689B68184738B536
:105458000D210546FFF7F8FF0A2104462846FFF705
:10546800F3FF204438BD38B50546FFF7D9FF044699
:105478002846FFF7ECFF204438BD30B58BB00B460B
:1054880000218DF82410012A98BF0A220DF1230467
:10549800B3FBF2F505FB123303F0FF03092B94BFAE
:1054A80030333733DBB2214604F801392B46002D5F
:1054B800EED1FFF7B5FF0BB030BD10B42AB90368C1
:1054C8005DF8044B9B68C9B21847D2B25DF8044B2B
:1054D800FFF7D3BFFFF7F1BF2DE9F04107460E46AE
:1054E80015462AB90368C9B29B68BDE8F041184758
:1054F8000A2A02D1002901DA04E0D2B2BDE8F0415B
:10550800FFF7BBBF2D21FFF79FFF2A4604467142D4
:105518003846FFF7B2FF2044BDE8F081FFF7DCBF53
:1055280010B50446FFF749FA204610BD0348044A5F
:1055380004490023836000F083BA00BFBCE5032060
:1055480050E3032029550D00704710B5102104467B
:1055580000F07BFA204610BD70B5084B0360044686
:1055680000250E4640F80C5FFEF7DEFF3046267138
:10557800FFF76AF8A560204670BD00BF94600D0073
:1055880010B504460068FFF77DF9204610BD10B538
:105598000446006808B1FFF775F900232360A3608B
:1055A800636010BD38B504460D4600680131FFF749
:1055B80071F910B184E82100012038BD10B50368E5
:1055C800044613B143688B4207D22046FFF7EAFF2F
:1055D80020B1A3680BB922681370012010BD70B503
:1055E8000E46114604461546FFF7E8FF18B920464F
:1055F800FFF7CDFF09E02A463146A560206800F094
:105608007FFB2268A3680021D154204670BD38B5BD
:105618000023044603604360836003730D4639B179
:10562800084600F0C4FB294602462046FFF7D7FF8C
:10563800204638BD10B500240470448000294FF678
:10564800FF74848007DD0139994209D232F811309C
:105658008380012301E002D10223037010BD418041
:1056680010BD000070B586B016461A460023029396
:105678000C9B01930D460B9B009304460A9B3146F5
:105688002846FFF78DF833462A46014604A8FFF757
:10569800D1FF064B0498BDF8142018609A801A6848
:1056A8009B8822602046A38006B070BDCCE503200D
:1056B800044B00204FF6FF72187058809A80FFF74D
:1056C8003BB800BFCCE50320024B1A68024B1A60B6
:1056D800704700BFE8E20320D4E503207047417417
:1056E800704708B5007CFEF7E7FF20EAE07008BDC8
:1056F80008B5007CFEF7C0FF20EAE07008BD08B5D9
:10570800007CFEF7C9FF30EA200028BF4FF0FF30C9
:1057180008BD08B5007CFEF7B7FF30EA200028BFB7
:105728004FF0FF3008BD007CFEF7BEBF10B5142156
:10573800044600F08AF9204610BD70B5457C044641
:105748000E4625B9007CFEF7B7FF002805DD314677
:10575800207CBDE87040FEF787BF284670BD00007A
:1057680010B5044608461146002262604FF47A726A
:10577800A260054A22600122207462741A46FEF76C
:105788006BFF204610BD00BFD0600D0038B50C4D32
:10579800296811F0010411D12846FEF77EFC68B192
:1057A800084A094B09482146FFF7DAFF2846FEF761
:1057B80079FC074A0749054800F042F9034838BD13
:1057C80070E6032074E60320ECE50320D8E5032007
:1057D80050E30320E5560D0041747047704708B543
:1057E8000021007CFEF790FF30EA200028BF4FF030
:1057F800FF3008BD08B50121007CFEF785FF30EABF
:10580800200028BF4FF0FF3008BD08B5007CFEF728
:1058180073FF20EAE07008BD08B5007CFEF764FF5E
:1058280020EAE07008BD007CFEF77EBF10B51421A9
:10583800044600F00AF9204610BD38B50446007C3D
:105848000D46FEF759FF002801DC607C28B1294687
:10585800207CFEF761FF20EAE07038BD10B50446F1
:10586800002363604FF47A73A360054B2360012320
:105878000846217463741146FEF726FF204610BDC2
:1058880000610D000022007CFEF726BF10B514222F
:105898000446002100F03FFA204610BD30B50E4DF9
:1058A80087B001A8FFF7F2FF296811F0010410D1B1
:1058B8002846FEF7F2FB60B101AA21460748FFF728
:1058C800CDFF2846FEF7EEFB054A0649034800F0DF
:1058D800B7F8024807B030BDF8E60320FCE603201D
:1058E80050E30320E5570D0008B50C4B33B1FFF723
:1058F800D5FF03681B699847002809DC084B63B18A
:10590800FFF744FF03681B699847002803DC08BDBC
:10591800AFF30080F2E7AFF3008008BD000000009D
:105928000000000008B5FFF7DFFFFEF715FE014B8A
:10593800186008BD14E7032007B5002300931A4632
:105948006FF07701FEF722FF03B05DF804FB00005B
:1059580007B543880A2B08D0502B09D1094B1B687F
:105968003BB103B05DF804EB1847FFF7E5FF06E02D
:10597800002300931A466FF07701FEF707FF03B084
:105988005DF804FB10E7032010B5FEF7DDFD0446C3
:1059980000F0CAF9074B13B12046AFF3008000218D
:1059A8000448FEF70FFF00210348BDE81040FEF74A
:1059B800E3BE00BF0000000059590D0038B50B4D7B
:1059C800296811F001040FD12846FEF766FB58B18B
:1059D80021460748FFF70CFB2846FEF763FB054AFC
:1059E8000549034800F02CF8014838BD18E70320A2
:1059F8001CE7032050E30320A14F0D0070B50C4CA9
:105A08000C4E0D4D00212046FFF7A6FD20460B4CFD
:105A18003246294600F014F801212046FFF79CFD84
:105A2800324629462046BDE8704000F009B800BF5C
:105A380030E7032050E3032051550D0040E70320D1
:105A48000B460146184600F04DB9FEF722BB08B5D3
:105A5800FEF728FF244B1A68D0075CBF01221A60A2
:105A6800224B1A68D1075CBF01221A60204B1A68C2
:105A7800D2075CBF01221A601E4B1A68D0075CBFB0
:105A880001221A601C4B1A68D1075CBF01221A60F8
:105A98001A4B1A68D2075CBF01221A60184B1A68A1
:105AA800D0075CBF01221A60164B1A68D1075CBF89
:105AB80001221A60144B1A68D2075CBF01221A60CF
:105AC800124B1A68D0075CBF01221A60104B1A6883
:105AD800D1075CBF01221A600E4B1A68D2075CBF5F
:105AE80001221A60704700BF7CE7032078E7032093
:105AF80074E7032070E703206CE7032068E70320BE
:105B080064E7032060E703205CE7032058E70320ED
:105B180054E7032050E70320184B1A68D1075CBFED
:105B280001221A60164B1A68D2075CBF01221A605C
:105B3800144B1A68D0075CBF01221A60124B1A680E
:105B4800D1075CBF01221A60104B1A68D2075CBFEC
:105B580001221A600E4B1A68D0075CBF01221A6036
:105B68000C4B1A68D1075CBF01221A600A4B1A68ED
:105B7800D2075CBF01221A60704700BF9CE7032070
:105B880098E7032094E7032090E703208CE703209D
:105B980088E7032084E7032080E70320184B1A686E
:105BA800D1075CBF01221A60164B1A68D2075CBF86
:105BB80001221A60144B1A68D0075CBF01221A60D0
:105BC800124B1A68D1075CBF01221A60104B1A6881
:105BD800D2075CBF01221A600E4B1A68D0075CBF5F
:105BE80001221A600C4B1A68D1075CBF01221A60A7
:105BF8000A4B1A68D2075CBF01221A60704700BFBF
:105C0800BCE70320B8E70320B4E70320B0E703208C
:105C1800ACE70320A8E70320A4E70320A0E70320BC
:105C2800244B1A68D0075CBF01221A60224B1A68FD
:105C3800D1075CBF01221A60204B1A68D2075CBFEB
:105C480001221A601E4B1A68D0075CBF01221A6035
:105C58001C4B1A68D1075CBF01221A601A4B1A68DC
:105C6800D2075CBF01221A60184B1A68D0075CBFC4
:105C780001221A60164B1A68D1075CBF01221A600C
:105C8800144B1A68D2075CBF01221A60124B1A68BB
:105C9800D0075CBF01221A60104B1A68D1075CBF9D
:105CA80001221A600E4B1A68D2075CBF01221A60E3
:105CB800704700BFECE70320E8E70320E4E7032090
:105CC800E0E70320DCE70320D8E70320D4E703203C
:105CD800D0E70320CCE70320C8E70320C4E703206C
:105CE800C0E7032010B5054C13462CB10A460146FF
:105CF8000220AFF3008010BD204610BD0000000058
:105D080010B5431E0A44914204D011F8014B03F820
:105D1800014FF8E710BD02440346934202D003F84E
:105D2800011BFAE77047000038B5124B1C68A36BDB
:105D38000546D3B91820FEF79DFD43F20E33A06344
:105D480003804AF6CD33438041F2342383804EF2F8
:105D58006D63C3804DF6EC630381052343810B23F8
:105D6800838101220023C0E90423A36B00221D6163
:105D78005A6138BD4CE30320024B0146186800F015
:105D880003B800BF4CE3032070B5064608460C462E
:105D980000F00DF8451C29463046FEF78BFD0646F7
:105DA80018B12A462146FFF7ABFF304670BD0346BF
:105DB80013F8012B002AFBD1181A0138704710B5C7
:105DC800034642B111F8014B03F8014B013A002C8C
:105DD800F7D11A4400E010BD934202D003F8014BFA
:105DE800FAE710BD1D400D0059400D0085400D001B
:105DF80089400D0000000000436F756C646E7420CC
:105E08007374617274004D4D413834353120666FBA
:105E1800756E64210052616E6765203D2000470061
:105E280064756D70737465722073657276696365E5
:105E3800206576656E7420636F6E6669726D656441
:105E48000064756D70737465722D666C6970706529
:105E5800640000000000000000000000B5400D00D4
:105E6800C9410D00B3400D00A5440D002D420D00A1
:105E78004D4D41383435310000000000000000006D
:105E880059490D004F490D0045490D00FB480D00CB
:105E980039490D002D490D0021490D0019490D0002
:105EA8000F490D0005490D001D530D0000000000AD
:105EB80000000000A5490D00AB490D00D5490D00B3
:105EC800B9490D00A7490D000000000000000000BE
:105ED800834F0D00794F0D006F4F0D00654F0D007A
:105EE800594F0D004D4F0D00414F0D00394F0D001A
:105EF8002F4F0D00254F0D001D530D000000000011
:105F080000000000A14F0D00EB4F0D00C34F0D0026
:105F1800A34F0D00CB4F0D00D34F0D00DB4F0D00ED
:105F2800E34F0D00000000000000000071500D005C
:105F380061500D0063500D0066006C6E00666E00C7
:105F4800636F64650064657461696C000D0A0025FF
:105F58003031307520005D20002564002C20002899
:105F6800293A2000205B00636F6465203D200025EE
:105F7800690064657461696C73203D200062617515
:105F8800640053657269616C0053657269616C31B4
:105F9800007479706500706172616D00636D6400F2
:105FA800696400686E64007374726D0066696C746D
:105FB800006C766C0061646448616E646C657200A4
:105FC80072656D6F766548616E646C657200656EAA
:105FD800756D48616E646C657273004A534F4E5319
:105FE800747265616D4C6F6748616E646C657200B0
:105FF800617070006E6F6E65007472616365006930
:106008006E666F007761726E006572726F720070F3
:10601800616E696300616C6C0000000000000000A4
:1060280000000000B3510D00A9510D009F510D0053
:1060380095510D0089510D007D510D0071510D00D4
:1060480069510D005F510D0055510D001D530D0094
:106058000000000000000000B5520D00BF520D0006
:10606800C9520D00D3520D00DD520D00E9520D004A
:10607800F5520D0001530D0009530D0013530D0087
:106088001D530D00000000000000000051550D00D8
:1060980053550D005A00252B3033643A253032759C
:1060A8000025592D256D2D25645425483A254D3A4E
:1060B8002553257A0061736374696D6500000000DB
:1060C8000000000000000000E5560D0035570D00E7
:1060D80043570D00FD530D00F9560D001B570D00D9
:1060E80007570D002F570D00E7560D00EB560D0012
:1060F8000000000000000000E5570D0035580D00B5
:1061080043580D00FD530D0021580D00E7570D00B1
:10611800FD570D002F580D0013580D00E1570D00C5
:106128000000000000000000000000000000000067
:106138000000000000000000000000000000000057
:106148000000000000000000000000000000000047
:106158000000000000000000000000000000000037
:106168000000000000000000000000000000000027
:106178000000000000000000000000000000000017
:1061880043000000D9410D00FD440D0065490D0094
:106198008D4F0D0045510D0069520D00E9530D005A
:1061A80035550D00B9560D00D1560D00055A0D0094
:1061B8005D5A0D00215B0D00A55B0D00295C0D00EB
:0861C8000000000000000000CF
:1061D000BD600D000000000028610D0048610D0049
:1061E00068610D00000000000000000000000000D9
:1061F0000000000088610D000000000000000000A9
:10620000000000000000000000000000000000008E
:10621000000000000000000000000000000000007E
:10622000000000000000000000000000000000006E
:0862300000000000ECE2032075
:10623800FFFFFFFF00000102030405060708090A23
:106248000B0C0D0E0F101112131415161718191A1E
:086258001B1C1D1E1F20280065
:046260007856341226
:04000003D0004018D1
:00000001FF
